{
  "_format": "hh-sol-artifact-1",
  "contractName": "NFT",
  "sourceName": "contracts/NFT.sol",
  "abi": [
    {
      "inputs": [
        {
          "internalType": "string",
          "name": "_name",
          "type": "string"
        },
        {
          "internalType": "string",
          "name": "_symbol",
          "type": "string"
        },
        {
          "internalType": "uint256",
          "name": "_cost",
          "type": "uint256"
        }
      ],
      "stateMutability": "nonpayable",
      "type": "constructor"
    },
    {
      "anonymous": false,
      "inputs": [
        {
          "indexed": true,
          "internalType": "address",
          "name": "owner",
          "type": "address"
        },
        {
          "indexed": true,
          "internalType": "address",
          "name": "approved",
          "type": "address"
        },
        {
          "indexed": true,
          "internalType": "uint256",
          "name": "tokenId",
          "type": "uint256"
        }
      ],
      "name": "Approval",
      "type": "event"
    },
    {
      "anonymous": false,
      "inputs": [
        {
          "indexed": true,
          "internalType": "address",
          "name": "owner",
          "type": "address"
        },
        {
          "indexed": true,
          "internalType": "address",
          "name": "operator",
          "type": "address"
        },
        {
          "indexed": false,
          "internalType": "bool",
          "name": "approved",
          "type": "bool"
        }
      ],
      "name": "ApprovalForAll",
      "type": "event"
    },
    {
      "anonymous": false,
      "inputs": [
        {
          "indexed": true,
          "internalType": "address",
          "name": "from",
          "type": "address"
        },
        {
          "indexed": true,
          "internalType": "address",
          "name": "to",
          "type": "address"
        },
        {
          "indexed": true,
          "internalType": "uint256",
          "name": "tokenId",
          "type": "uint256"
        }
      ],
      "name": "Transfer",
      "type": "event"
    },
    {
      "inputs": [
        {
          "internalType": "address",
          "name": "to",
          "type": "address"
        },
        {
          "internalType": "uint256",
          "name": "tokenId",
          "type": "uint256"
        }
      ],
      "name": "approve",
      "outputs": [],
      "stateMutability": "nonpayable",
      "type": "function"
    },
    {
      "inputs": [
        {
          "internalType": "address",
          "name": "owner",
          "type": "address"
        }
      ],
      "name": "balanceOf",
      "outputs": [
        {
          "internalType": "uint256",
          "name": "",
          "type": "uint256"
        }
      ],
      "stateMutability": "view",
      "type": "function"
    },
    {
      "inputs": [],
      "name": "cost",
      "outputs": [
        {
          "internalType": "uint256",
          "name": "",
          "type": "uint256"
        }
      ],
      "stateMutability": "view",
      "type": "function"
    },
    {
      "inputs": [
        {
          "internalType": "uint256",
          "name": "tokenId",
          "type": "uint256"
        }
      ],
      "name": "getApproved",
      "outputs": [
        {
          "internalType": "address",
          "name": "",
          "type": "address"
        }
      ],
      "stateMutability": "view",
      "type": "function"
    },
    {
      "inputs": [
        {
          "internalType": "address",
          "name": "owner",
          "type": "address"
        },
        {
          "internalType": "address",
          "name": "operator",
          "type": "address"
        }
      ],
      "name": "isApprovedForAll",
      "outputs": [
        {
          "internalType": "bool",
          "name": "",
          "type": "bool"
        }
      ],
      "stateMutability": "view",
      "type": "function"
    },
    {
      "inputs": [
        {
          "internalType": "string",
          "name": "tokenURI",
          "type": "string"
        }
      ],
      "name": "mint",
      "outputs": [],
      "stateMutability": "payable",
      "type": "function"
    },
    {
      "inputs": [],
      "name": "name",
      "outputs": [
        {
          "internalType": "string",
          "name": "",
          "type": "string"
        }
      ],
      "stateMutability": "view",
      "type": "function"
    },
    {
      "inputs": [],
      "name": "owner",
      "outputs": [
        {
          "internalType": "address",
          "name": "",
          "type": "address"
        }
      ],
      "stateMutability": "view",
      "type": "function"
    },
    {
      "inputs": [
        {
          "internalType": "uint256",
          "name": "tokenId",
          "type": "uint256"
        }
      ],
      "name": "ownerOf",
      "outputs": [
        {
          "internalType": "address",
          "name": "",
          "type": "address"
        }
      ],
      "stateMutability": "view",
      "type": "function"
    },
    {
      "inputs": [
        {
          "internalType": "address",
          "name": "from",
          "type": "address"
        },
        {
          "internalType": "address",
          "name": "to",
          "type": "address"
        },
        {
          "internalType": "uint256",
          "name": "tokenId",
          "type": "uint256"
        }
      ],
      "name": "safeTransferFrom",
      "outputs": [],
      "stateMutability": "nonpayable",
      "type": "function"
    },
    {
      "inputs": [
        {
          "internalType": "address",
          "name": "from",
          "type": "address"
        },
        {
          "internalType": "address",
          "name": "to",
          "type": "address"
        },
        {
          "internalType": "uint256",
          "name": "tokenId",
          "type": "uint256"
        },
        {
          "internalType": "bytes",
          "name": "data",
          "type": "bytes"
        }
      ],
      "name": "safeTransferFrom",
      "outputs": [],
      "stateMutability": "nonpayable",
      "type": "function"
    },
    {
      "inputs": [
        {
          "internalType": "address",
          "name": "operator",
          "type": "address"
        },
        {
          "internalType": "bool",
          "name": "approved",
          "type": "bool"
        }
      ],
      "name": "setApprovalForAll",
      "outputs": [],
      "stateMutability": "nonpayable",
      "type": "function"
    },
    {
      "inputs": [
        {
          "internalType": "bytes4",
          "name": "interfaceId",
          "type": "bytes4"
        }
      ],
      "name": "supportsInterface",
      "outputs": [
        {
          "internalType": "bool",
          "name": "",
          "type": "bool"
        }
      ],
      "stateMutability": "view",
      "type": "function"
    },
    {
      "inputs": [],
      "name": "symbol",
      "outputs": [
        {
          "internalType": "string",
          "name": "",
          "type": "string"
        }
      ],
      "stateMutability": "view",
      "type": "function"
    },
    {
      "inputs": [
        {
          "internalType": "uint256",
          "name": "tokenId",
          "type": "uint256"
        }
      ],
      "name": "tokenURI",
      "outputs": [
        {
          "internalType": "string",
          "name": "",
          "type": "string"
        }
      ],
      "stateMutability": "view",
      "type": "function"
    },
    {
      "inputs": [],
      "name": "totalSupply",
      "outputs": [
        {
          "internalType": "uint256",
          "name": "",
          "type": "uint256"
        }
      ],
      "stateMutability": "view",
      "type": "function"
    },
    {
      "inputs": [
        {
          "internalType": "address",
          "name": "from",
          "type": "address"
        },
        {
          "internalType": "address",
          "name": "to",
          "type": "address"
        },
        {
          "internalType": "uint256",
          "name": "tokenId",
          "type": "uint256"
        }
      ],
      "name": "transferFrom",
      "outputs": [],
      "stateMutability": "nonpayable",
      "type": "function"
    },
    {
      "inputs": [],
      "name": "withdraw",
      "outputs": [],
      "stateMutability": "nonpayable",
      "type": "function"
    }
  ],
  "bytecode": "0x60806040523480156200001157600080fd5b506040516200318538038062003185833981810160405281019062000037919062000346565b8282816000908051906020019062000051929190620000be565b5080600190805190602001906200006a929190620000be565b50505033600860006101000a81548173ffffffffffffffffffffffffffffffffffffffff021916908373ffffffffffffffffffffffffffffffffffffffff1602179055508060098190555050505062000445565b828054620000cc906200040f565b90600052602060002090601f016020900481019282620000f057600085556200013c565b82601f106200010b57805160ff19168380011785556200013c565b828001600101855582156200013c579182015b828111156200013b5782518255916020019190600101906200011e565b5b5090506200014b91906200014f565b5090565b5b808211156200016a57600081600090555060010162000150565b5090565b6000604051905090565b600080fd5b600080fd5b600080fd5b600080fd5b6000601f19601f8301169050919050565b7f4e487b7100000000000000000000000000000000000000000000000000000000600052604160045260246000fd5b620001d7826200018c565b810181811067ffffffffffffffff82111715620001f957620001f86200019d565b5b80604052505050565b60006200020e6200016e565b90506200021c8282620001cc565b919050565b600067ffffffffffffffff8211156200023f576200023e6200019d565b5b6200024a826200018c565b9050602081019050919050565b60005b83811015620002775780820151818401526020810190506200025a565b8381111562000287576000848401525b50505050565b6000620002a46200029e8462000221565b62000202565b905082815260208101848484011115620002c357620002c262000187565b5b620002d084828562000257565b509392505050565b600082601f830112620002f057620002ef62000182565b5b8151620003028482602086016200028d565b91505092915050565b6000819050919050565b62000320816200030b565b81146200032c57600080fd5b50565b600081519050620003408162000315565b92915050565b60008060006060848603121562000362576200036162000178565b5b600084015167ffffffffffffffff8111156200038357620003826200017d565b5b6200039186828701620002d8565b935050602084015167ffffffffffffffff811115620003b557620003b46200017d565b5b620003c386828701620002d8565b9250506040620003d6868287016200032f565b9150509250925092565b7f4e487b7100000000000000000000000000000000000000000000000000000000600052602260045260246000fd5b600060028204905060018216806200042857607f821691505b602082108114156200043f576200043e620003e0565b5b50919050565b612d3080620004556000396000f3fe6080604052600436106101095760003560e01c80636352211e11610095578063a22cb46511610064578063a22cb4651461036b578063b88d4fde14610394578063c87b56dd146103bd578063d85d3d27146103fa578063e985e9c51461041657610109565b80636352211e1461029b57806370a08231146102d85780638da5cb5b1461031557806395d89b411461034057610109565b806313faede6116100dc57806313faede6146101dc57806318160ddd1461020757806323b872dd146102325780633ccfd60b1461025b57806342842e0e1461027257610109565b806301ffc9a71461010e57806306fdde031461014b578063081812fc14610176578063095ea7b3146101b3575b600080fd5b34801561011a57600080fd5b5061013560048036038101906101309190611da7565b610453565b6040516101429190611def565b60405180910390f35b34801561015757600080fd5b50610160610535565b60405161016d9190611ea3565b60405180910390f35b34801561018257600080fd5b5061019d60048036038101906101989190611efb565b6105c7565b6040516101aa9190611f69565b60405180910390f35b3480156101bf57600080fd5b506101da60048036038101906101d59190611fb0565b61060d565b005b3480156101e857600080fd5b506101f1610725565b6040516101fe9190611fff565b60405180910390f35b34801561021357600080fd5b5061021c61072b565b6040516102299190611fff565b60405180910390f35b34801561023e57600080fd5b506102596004803603810190610254919061201a565b61073c565b005b34801561026757600080fd5b5061027061079c565b005b34801561027e57600080fd5b506102996004803603810190610294919061201a565b610891565b005b3480156102a757600080fd5b506102c260048036038101906102bd9190611efb565b6108b1565b6040516102cf9190611f69565b60405180910390f35b3480156102e457600080fd5b506102ff60048036038101906102fa919061206d565b610938565b60405161030c9190611fff565b60405180910390f35b34801561032157600080fd5b5061032a6109f0565b6040516103379190611f69565b60405180910390f35b34801561034c57600080fd5b50610355610a16565b6040516103629190611ea3565b60405180910390f35b34801561037757600080fd5b50610392600480360381019061038d91906120c6565b610aa8565b005b3480156103a057600080fd5b506103bb60048036038101906103b6919061223b565b610abe565b005b3480156103c957600080fd5b506103e460048036038101906103df9190611efb565b610b20565b6040516103f19190611ea3565b60405180910390f35b610414600480360381019061040f919061235f565b610c33565b005b34801561042257600080fd5b5061043d600480360381019061043891906123a8565b610c72565b60405161044a9190611def565b60405180910390f35b60007f80ac58cd000000000000000000000000000000000000000000000000000000007bffffffffffffffffffffffffffffffffffffffffffffffffffffffff1916827bffffffffffffffffffffffffffffffffffffffffffffffffffffffff1916148061051e57507f5b5e139f000000000000000000000000000000000000000000000000000000007bffffffffffffffffffffffffffffffffffffffffffffffffffffffff1916827bffffffffffffffffffffffffffffffffffffffffffffffffffffffff1916145b8061052e575061052d82610d06565b5b9050919050565b60606000805461054490612417565b80601f016020809104026020016040519081016040528092919081815260200182805461057090612417565b80156105bd5780601f10610592576101008083540402835291602001916105bd565b820191906000526020600020905b8154815290600101906020018083116105a057829003601f168201915b5050505050905090565b60006105d282610d70565b6004600083815260200190815260200160002060009054906101000a900473ffffffffffffffffffffffffffffffffffffffff169050919050565b6000610618826108b1565b90508073ffffffffffffffffffffffffffffffffffffffff168373ffffffffffffffffffffffffffffffffffffffff161415610689576040517f08c379a0000000000000000000000000000000000000000000000000000000008152600401610680906124bb565b60405180910390fd5b8073ffffffffffffffffffffffffffffffffffffffff166106a8610dbb565b73ffffffffffffffffffffffffffffffffffffffff1614806106d757506106d6816106d1610dbb565b610c72565b5b610716576040517f08c379a000000000000000000000000000000000000000000000000000000000815260040161070d9061254d565b60405180910390fd5b6107208383610dc3565b505050565b60095481565b60006107376007610e7c565b905090565b61074d610747610dbb565b82610e8a565b61078c576040517f08c379a0000000000000000000000000000000000000000000000000000000008152600401610783906125df565b60405180910390fd5b610797838383610f1f565b505050565b600860009054906101000a900473ffffffffffffffffffffffffffffffffffffffff1673ffffffffffffffffffffffffffffffffffffffff163373ffffffffffffffffffffffffffffffffffffffff16146107f657600080fd5b6000600860009054906101000a900473ffffffffffffffffffffffffffffffffffffffff1673ffffffffffffffffffffffffffffffffffffffff164760405161083e90612630565b60006040518083038185875af1925050503d806000811461087b576040519150601f19603f3d011682016040523d82523d6000602084013e610880565b606091505b505090508061088e57600080fd5b50565b6108ac83838360405180602001604052806000815250610abe565b505050565b6000806108bd83611219565b9050600073ffffffffffffffffffffffffffffffffffffffff168173ffffffffffffffffffffffffffffffffffffffff16141561092f576040517f08c379a000000000000000000000000000000000000000000000000000000000815260040161092690612691565b60405180910390fd5b80915050919050565b60008073ffffffffffffffffffffffffffffffffffffffff168273ffffffffffffffffffffffffffffffffffffffff1614156109a9576040517f08c379a00000000000000000000000000000000000000000000000000000000081526004016109a090612723565b60405180910390fd5b600360008373ffffffffffffffffffffffffffffffffffffffff1673ffffffffffffffffffffffffffffffffffffffff168152602001908152602001600020549050919050565b600860009054906101000a900473ffffffffffffffffffffffffffffffffffffffff1681565b606060018054610a2590612417565b80601f0160208091040260200160405190810160405280929190818152602001828054610a5190612417565b8015610a9e5780601f10610a7357610100808354040283529160200191610a9e565b820191906000526020600020905b815481529060010190602001808311610a8157829003601f168201915b5050505050905090565b610aba610ab3610dbb565b8383611256565b5050565b610acf610ac9610dbb565b83610e8a565b610b0e576040517f08c379a0000000000000000000000000000000000000000000000000000000008152600401610b05906125df565b60405180910390fd5b610b1a848484846113c3565b50505050565b6060610b2b82610d70565b6000600660008481526020019081526020016000208054610b4b90612417565b80601f0160208091040260200160405190810160405280929190818152602001828054610b7790612417565b8015610bc45780601f10610b9957610100808354040283529160200191610bc4565b820191906000526020600020905b815481529060010190602001808311610ba757829003601f168201915b505050505090506000610bd561141f565b9050600081511415610beb578192505050610c2e565b600082511115610c20578082604051602001610c0892919061277f565b60405160208183030381529060405292505050610c2e565b610c2984611436565b925050505b919050565b600954341015610c4257600080fd5b610c4c600761149e565b6000610c586007610e7c565b9050610c6433826114b4565b610c6e81836116d2565b5050565b6000600560008473ffffffffffffffffffffffffffffffffffffffff1673ffffffffffffffffffffffffffffffffffffffff16815260200190815260200160002060008373ffffffffffffffffffffffffffffffffffffffff1673ffffffffffffffffffffffffffffffffffffffff16815260200190815260200160002060009054906101000a900460ff16905092915050565b60007f01ffc9a7000000000000000000000000000000000000000000000000000000007bffffffffffffffffffffffffffffffffffffffffffffffffffffffff1916827bffffffffffffffffffffffffffffffffffffffffffffffffffffffff1916149050919050565b610d7981611746565b610db8576040517f08c379a0000000000000000000000000000000000000000000000000000000008152600401610daf90612691565b60405180910390fd5b50565b600033905090565b816004600083815260200190815260200160002060006101000a81548173ffffffffffffffffffffffffffffffffffffffff021916908373ffffffffffffffffffffffffffffffffffffffff160217905550808273ffffffffffffffffffffffffffffffffffffffff16610e36836108b1565b73ffffffffffffffffffffffffffffffffffffffff167f8c5be1e5ebec7d5bd14f71427d1e84f3dd0314c0f7b2291e5b200ac8c7c3b92560405160405180910390a45050565b600081600001549050919050565b600080610e96836108b1565b90508073ffffffffffffffffffffffffffffffffffffffff168473ffffffffffffffffffffffffffffffffffffffff161480610ed85750610ed78185610c72565b5b80610f1657508373ffffffffffffffffffffffffffffffffffffffff16610efe846105c7565b73ffffffffffffffffffffffffffffffffffffffff16145b91505092915050565b8273ffffffffffffffffffffffffffffffffffffffff16610f3f826108b1565b73ffffffffffffffffffffffffffffffffffffffff1614610f95576040517f08c379a0000000000000000000000000000000000000000000000000000000008152600401610f8c90612815565b60405180910390fd5b600073ffffffffffffffffffffffffffffffffffffffff168273ffffffffffffffffffffffffffffffffffffffff161415611005576040517f08c379a0000000000000000000000000000000000000000000000000000000008152600401610ffc906128a7565b60405180910390fd5b6110128383836001611787565b8273ffffffffffffffffffffffffffffffffffffffff16611032826108b1565b73ffffffffffffffffffffffffffffffffffffffff1614611088576040517f08c379a000000000000000000000000000000000000000000000000000000000815260040161107f90612815565b60405180910390fd5b6004600082815260200190815260200160002060006101000a81549073ffffffffffffffffffffffffffffffffffffffff02191690556001600360008573ffffffffffffffffffffffffffffffffffffffff1673ffffffffffffffffffffffffffffffffffffffff168152602001908152602001600020600082825403925050819055506001600360008473ffffffffffffffffffffffffffffffffffffffff1673ffffffffffffffffffffffffffffffffffffffff16815260200190815260200160002060008282540192505081905550816002600083815260200190815260200160002060006101000a81548173ffffffffffffffffffffffffffffffffffffffff021916908373ffffffffffffffffffffffffffffffffffffffff160217905550808273ffffffffffffffffffffffffffffffffffffffff168473ffffffffffffffffffffffffffffffffffffffff167fddf252ad1be2c89b69c2b068fc378daa952ba7f163c4a11628f55a4df523b3ef60405160405180910390a461121483838360016118ad565b505050565b60006002600083815260200190815260200160002060009054906101000a900473ffffffffffffffffffffffffffffffffffffffff169050919050565b8173ffffffffffffffffffffffffffffffffffffffff168373ffffffffffffffffffffffffffffffffffffffff1614156112c5576040517f08c379a00000000000000000000000000000000000000000000000000000000081526004016112bc90612913565b60405180910390fd5b80600560008573ffffffffffffffffffffffffffffffffffffffff1673ffffffffffffffffffffffffffffffffffffffff16815260200190815260200160002060008473ffffffffffffffffffffffffffffffffffffffff1673ffffffffffffffffffffffffffffffffffffffff16815260200190815260200160002060006101000a81548160ff0219169083151502179055508173ffffffffffffffffffffffffffffffffffffffff168373ffffffffffffffffffffffffffffffffffffffff167f17307eab39ab6107e8899845ad3d59bd9653f200f220920489ca2b5937696c31836040516113b69190611def565b60405180910390a3505050565b6113ce848484610f1f565b6113da848484846118b3565b611419576040517f08c379a0000000000000000000000000000000000000000000000000000000008152600401611410906129a5565b60405180910390fd5b50505050565b606060405180602001604052806000815250905090565b606061144182610d70565b600061144b61141f565b9050600081511161146b5760405180602001604052806000815250611496565b8061147584611a4a565b60405160200161148692919061277f565b6040516020818303038152906040525b915050919050565b6001816000016000828254019250508190555050565b600073ffffffffffffffffffffffffffffffffffffffff168273ffffffffffffffffffffffffffffffffffffffff161415611524576040517f08c379a000000000000000000000000000000000000000000000000000000000815260040161151b90612a11565b60405180910390fd5b61152d81611746565b1561156d576040517f08c379a000000000000000000000000000000000000000000000000000000000815260040161156490612a7d565b60405180910390fd5b61157b600083836001611787565b61158481611746565b156115c4576040517f08c379a00000000000000000000000000000000000000000000000000000000081526004016115bb90612a7d565b60405180910390fd5b6001600360008473ffffffffffffffffffffffffffffffffffffffff1673ffffffffffffffffffffffffffffffffffffffff16815260200190815260200160002060008282540192505081905550816002600083815260200190815260200160002060006101000a81548173ffffffffffffffffffffffffffffffffffffffff021916908373ffffffffffffffffffffffffffffffffffffffff160217905550808273ffffffffffffffffffffffffffffffffffffffff16600073ffffffffffffffffffffffffffffffffffffffff167fddf252ad1be2c89b69c2b068fc378daa952ba7f163c4a11628f55a4df523b3ef60405160405180910390a46116ce6000838360016118ad565b5050565b6116db82611746565b61171a576040517f08c379a000000000000000000000000000000000000000000000000000000000815260040161171190612b0f565b60405180910390fd5b80600660008481526020019081526020016000209080519060200190611741929190611c98565b505050565b60008073ffffffffffffffffffffffffffffffffffffffff1661176883611219565b73ffffffffffffffffffffffffffffffffffffffff1614159050919050565b60018111156118a757600073ffffffffffffffffffffffffffffffffffffffff168473ffffffffffffffffffffffffffffffffffffffff161461181b5780600360008673ffffffffffffffffffffffffffffffffffffffff1673ffffffffffffffffffffffffffffffffffffffff16815260200190815260200160002060008282546118139190612b5e565b925050819055505b600073ffffffffffffffffffffffffffffffffffffffff168373ffffffffffffffffffffffffffffffffffffffff16146118a65780600360008573ffffffffffffffffffffffffffffffffffffffff1673ffffffffffffffffffffffffffffffffffffffff168152602001908152602001600020600082825461189e9190612b92565b925050819055505b5b50505050565b50505050565b60006118d48473ffffffffffffffffffffffffffffffffffffffff16611b22565b15611a3d578373ffffffffffffffffffffffffffffffffffffffff1663150b7a026118fd610dbb565b8786866040518563ffffffff1660e01b815260040161191f9493929190612c3d565b602060405180830381600087803b15801561193957600080fd5b505af192505050801561196a57506040513d601f19601f820116820180604052508101906119679190612c9e565b60015b6119ed573d806000811461199a576040519150601f19603f3d011682016040523d82523d6000602084013e61199f565b606091505b506000815114156119e5576040517f08c379a00000000000000000000000000000000000000000000000000000000081526004016119dc906129a5565b60405180910390fd5b805181602001fd5b63150b7a0260e01b7bffffffffffffffffffffffffffffffffffffffffffffffffffffffff1916817bffffffffffffffffffffffffffffffffffffffffffffffffffffffff191614915050611a42565b600190505b949350505050565b606060006001611a5984611b45565b01905060008167ffffffffffffffff811115611a7857611a77612110565b5b6040519080825280601f01601f191660200182016040528015611aaa5781602001600182028036833780820191505090505b509050600082602001820190505b600115611b17578080600190039150507f3031323334353637383961626364656600000000000000000000000000000000600a86061a8153600a8581611b0157611b00612ccb565b5b0494506000851415611b1257611b17565b611ab8565b819350505050919050565b6000808273ffffffffffffffffffffffffffffffffffffffff163b119050919050565b600080600090507a184f03e93ff9f4daa797ed6e38ed64bf6a1f0100000000000000008310611ba3577a184f03e93ff9f4daa797ed6e38ed64bf6a1f0100000000000000008381611b9957611b98612ccb565b5b0492506040810190505b6d04ee2d6d415b85acef81000000008310611be0576d04ee2d6d415b85acef81000000008381611bd657611bd5612ccb565b5b0492506020810190505b662386f26fc100008310611c0f57662386f26fc100008381611c0557611c04612ccb565b5b0492506010810190505b6305f5e1008310611c38576305f5e1008381611c2e57611c2d612ccb565b5b0492506008810190505b6127108310611c5d576127108381611c5357611c52612ccb565b5b0492506004810190505b60648310611c805760648381611c7657611c75612ccb565b5b0492506002810190505b600a8310611c8f576001810190505b80915050919050565b828054611ca490612417565b90600052602060002090601f016020900481019282611cc65760008555611d0d565b82601f10611cdf57805160ff1916838001178555611d0d565b82800160010185558215611d0d579182015b82811115611d0c578251825591602001919060010190611cf1565b5b509050611d1a9190611d1e565b5090565b5b80821115611d37576000816000905550600101611d1f565b5090565b6000604051905090565b600080fd5b600080fd5b60007fffffffff0000000000000000000000000000000000000000000000000000000082169050919050565b611d8481611d4f565b8114611d8f57600080fd5b50565b600081359050611da181611d7b565b92915050565b600060208284031215611dbd57611dbc611d45565b5b6000611dcb84828501611d92565b91505092915050565b60008115159050919050565b611de981611dd4565b82525050565b6000602082019050611e046000830184611de0565b92915050565b600081519050919050565b600082825260208201905092915050565b60005b83811015611e44578082015181840152602081019050611e29565b83811115611e53576000848401525b50505050565b6000601f19601f8301169050919050565b6000611e7582611e0a565b611e7f8185611e15565b9350611e8f818560208601611e26565b611e9881611e59565b840191505092915050565b60006020820190508181036000830152611ebd8184611e6a565b905092915050565b6000819050919050565b611ed881611ec5565b8114611ee357600080fd5b50565b600081359050611ef581611ecf565b92915050565b600060208284031215611f1157611f10611d45565b5b6000611f1f84828501611ee6565b91505092915050565b600073ffffffffffffffffffffffffffffffffffffffff82169050919050565b6000611f5382611f28565b9050919050565b611f6381611f48565b82525050565b6000602082019050611f7e6000830184611f5a565b92915050565b611f8d81611f48565b8114611f9857600080fd5b50565b600081359050611faa81611f84565b92915050565b60008060408385031215611fc757611fc6611d45565b5b6000611fd585828601611f9b565b9250506020611fe685828601611ee6565b9150509250929050565b611ff981611ec5565b82525050565b60006020820190506120146000830184611ff0565b92915050565b60008060006060848603121561203357612032611d45565b5b600061204186828701611f9b565b935050602061205286828701611f9b565b925050604061206386828701611ee6565b9150509250925092565b60006020828403121561208357612082611d45565b5b600061209184828501611f9b565b91505092915050565b6120a381611dd4565b81146120ae57600080fd5b50565b6000813590506120c08161209a565b92915050565b600080604083850312156120dd576120dc611d45565b5b60006120eb85828601611f9b565b92505060206120fc858286016120b1565b9150509250929050565b600080fd5b600080fd5b7f4e487b7100000000000000000000000000000000000000000000000000000000600052604160045260246000fd5b61214882611e59565b810181811067ffffffffffffffff8211171561216757612166612110565b5b80604052505050565b600061217a611d3b565b9050612186828261213f565b919050565b600067ffffffffffffffff8211156121a6576121a5612110565b5b6121af82611e59565b9050602081019050919050565b82818337600083830152505050565b60006121de6121d98461218b565b612170565b9050828152602081018484840111156121fa576121f961210b565b5b6122058482856121bc565b509392505050565b600082601f83011261222257612221612106565b5b81356122328482602086016121cb565b91505092915050565b6000806000806080858703121561225557612254611d45565b5b600061226387828801611f9b565b945050602061227487828801611f9b565b935050604061228587828801611ee6565b925050606085013567ffffffffffffffff8111156122a6576122a5611d4a565b5b6122b28782880161220d565b91505092959194509250565b600067ffffffffffffffff8211156122d9576122d8612110565b5b6122e282611e59565b9050602081019050919050565b60006123026122fd846122be565b612170565b90508281526020810184848401111561231e5761231d61210b565b5b6123298482856121bc565b509392505050565b600082601f83011261234657612345612106565b5b81356123568482602086016122ef565b91505092915050565b60006020828403121561237557612374611d45565b5b600082013567ffffffffffffffff81111561239357612392611d4a565b5b61239f84828501612331565b91505092915050565b600080604083850312156123bf576123be611d45565b5b60006123cd85828601611f9b565b92505060206123de85828601611f9b565b9150509250929050565b7f4e487b7100000000000000000000000000000000000000000000000000000000600052602260045260246000fd5b6000600282049050600182168061242f57607f821691505b60208210811415612443576124426123e8565b5b50919050565b7f4552433732313a20617070726f76616c20746f2063757272656e74206f776e6560008201527f7200000000000000000000000000000000000000000000000000000000000000602082015250565b60006124a5602183611e15565b91506124b082612449565b604082019050919050565b600060208201905081810360008301526124d481612498565b9050919050565b7f4552433732313a20617070726f76652063616c6c6572206973206e6f7420746f60008201527f6b656e206f776e6572206f7220617070726f76656420666f7220616c6c000000602082015250565b6000612537603d83611e15565b9150612542826124db565b604082019050919050565b600060208201905081810360008301526125668161252a565b9050919050565b7f4552433732313a2063616c6c6572206973206e6f7420746f6b656e206f776e6560008201527f72206f7220617070726f76656400000000000000000000000000000000000000602082015250565b60006125c9602d83611e15565b91506125d48261256d565b604082019050919050565b600060208201905081810360008301526125f8816125bc565b9050919050565b600081905092915050565b50565b600061261a6000836125ff565b91506126258261260a565b600082019050919050565b600061263b8261260d565b9150819050919050565b7f4552433732313a20696e76616c696420746f6b656e2049440000000000000000600082015250565b600061267b601883611e15565b915061268682612645565b602082019050919050565b600060208201905081810360008301526126aa8161266e565b9050919050565b7f4552433732313a2061646472657373207a65726f206973206e6f74206120766160008201527f6c6964206f776e65720000000000000000000000000000000000000000000000602082015250565b600061270d602983611e15565b9150612718826126b1565b604082019050919050565b6000602082019050818103600083015261273c81612700565b9050919050565b600081905092915050565b600061275982611e0a565b6127638185612743565b9350612773818560208601611e26565b80840191505092915050565b600061278b828561274e565b9150612797828461274e565b91508190509392505050565b7f4552433732313a207472616e736665722066726f6d20696e636f72726563742060008201527f6f776e6572000000000000000000000000000000000000000000000000000000602082015250565b60006127ff602583611e15565b915061280a826127a3565b604082019050919050565b6000602082019050818103600083015261282e816127f2565b9050919050565b7f4552433732313a207472616e7366657220746f20746865207a65726f2061646460008201527f7265737300000000000000000000000000000000000000000000000000000000602082015250565b6000612891602483611e15565b915061289c82612835565b604082019050919050565b600060208201905081810360008301526128c081612884565b9050919050565b7f4552433732313a20617070726f766520746f2063616c6c657200000000000000600082015250565b60006128fd601983611e15565b9150612908826128c7565b602082019050919050565b6000602082019050818103600083015261292c816128f0565b9050919050565b7f4552433732313a207472616e7366657220746f206e6f6e20455243373231526560008201527f63656976657220696d706c656d656e7465720000000000000000000000000000602082015250565b600061298f603283611e15565b915061299a82612933565b604082019050919050565b600060208201905081810360008301526129be81612982565b9050919050565b7f4552433732313a206d696e7420746f20746865207a65726f2061646472657373600082015250565b60006129fb602083611e15565b9150612a06826129c5565b602082019050919050565b60006020820190508181036000830152612a2a816129ee565b9050919050565b7f4552433732313a20746f6b656e20616c7265616479206d696e74656400000000600082015250565b6000612a67601c83611e15565b9150612a7282612a31565b602082019050919050565b60006020820190508181036000830152612a9681612a5a565b9050919050565b7f45524337323155524953746f726167653a2055524920736574206f66206e6f6e60008201527f6578697374656e7420746f6b656e000000000000000000000000000000000000602082015250565b6000612af9602e83611e15565b9150612b0482612a9d565b604082019050919050565b60006020820190508181036000830152612b2881612aec565b9050919050565b7f4e487b7100000000000000000000000000000000000000000000000000000000600052601160045260246000fd5b6000612b6982611ec5565b9150612b7483611ec5565b925082821015612b8757612b86612b2f565b5b828203905092915050565b6000612b9d82611ec5565b9150612ba883611ec5565b9250827fffffffffffffffffffffffffffffffffffffffffffffffffffffffffffffffff03821115612bdd57612bdc612b2f565b5b828201905092915050565b600081519050919050565b600082825260208201905092915050565b6000612c0f82612be8565b612c198185612bf3565b9350612c29818560208601611e26565b612c3281611e59565b840191505092915050565b6000608082019050612c526000830187611f5a565b612c5f6020830186611f5a565b612c6c6040830185611ff0565b8181036060830152612c7e8184612c04565b905095945050505050565b600081519050612c9881611d7b565b92915050565b600060208284031215612cb457612cb3611d45565b5b6000612cc284828501612c89565b91505092915050565b7f4e487b7100000000000000000000000000000000000000000000000000000000600052601260045260246000fdfea26469706673582212209525b0254f12867ac388be163fe9a055b9b9716ffb9bd5b61aba7a92e87f4f5064736f6c63430008090033",
  "linkReferences": {},
  "deployedLinkReferences": {}
}