{
  "_format": "hh-sol-artifact-1",
  "contractName": "Crowdsale",
  "sourceName": "contracts/Crowdsale.sol",
  "abi": [
    {
      "inputs": [
        {
          "internalType": "contract Token",
          "name": "_token",
          "type": "address"
        },
        {
          "internalType": "uint256",
          "name": "_price",
          "type": "uint256"
        },
        {
          "internalType": "uint256",
          "name": "_maxTokens",
          "type": "uint256"
        }
      ],
      "stateMutability": "nonpayable",
      "type": "constructor"
    },
    {
      "anonymous": false,
      "inputs": [
        {
          "indexed": false,
          "internalType": "uint256",
          "name": "amount",
          "type": "uint256"
        },
        {
          "indexed": false,
          "internalType": "address",
          "name": "buyer",
          "type": "address"
        }
      ],
      "name": "Buy",
      "type": "event"
    },
    {
      "anonymous": false,
      "inputs": [
        {
          "indexed": false,
          "internalType": "uint256",
          "name": "tokensSold",
          "type": "uint256"
        },
        {
          "indexed": false,
          "internalType": "uint256",
          "name": "ethRaised",
          "type": "uint256"
        }
      ],
      "name": "Finalize",
      "type": "event"
    },
    {
      "inputs": [
        {
          "internalType": "uint256",
          "name": "_amount",
          "type": "uint256"
        }
      ],
      "name": "buyTokens",
      "outputs": [],
      "stateMutability": "payable",
      "type": "function"
    },
    {
      "inputs": [],
      "name": "finalize",
      "outputs": [],
      "stateMutability": "nonpayable",
      "type": "function"
    },
    {
      "inputs": [],
      "name": "maxTokens",
      "outputs": [
        {
          "internalType": "uint256",
          "name": "",
          "type": "uint256"
        }
      ],
      "stateMutability": "view",
      "type": "function"
    },
    {
      "inputs": [],
      "name": "owner",
      "outputs": [
        {
          "internalType": "address",
          "name": "",
          "type": "address"
        }
      ],
      "stateMutability": "view",
      "type": "function"
    },
    {
      "inputs": [],
      "name": "price",
      "outputs": [
        {
          "internalType": "uint256",
          "name": "",
          "type": "uint256"
        }
      ],
      "stateMutability": "view",
      "type": "function"
    },
    {
      "inputs": [
        {
          "internalType": "uint256",
          "name": "_price",
          "type": "uint256"
        }
      ],
      "name": "setPrice",
      "outputs": [],
      "stateMutability": "nonpayable",
      "type": "function"
    },
    {
      "inputs": [],
      "name": "token",
      "outputs": [
        {
          "internalType": "contract Token",
          "name": "",
          "type": "address"
        }
      ],
      "stateMutability": "view",
      "type": "function"
    },
    {
      "inputs": [],
      "name": "tokensSold",
      "outputs": [
        {
          "internalType": "uint256",
          "name": "",
          "type": "uint256"
        }
      ],
      "stateMutability": "view",
      "type": "function"
    },
    {
      "stateMutability": "payable",
      "type": "receive"
    }
  ],
  "bytecode": "0x60806040523480156200001157600080fd5b5060405162000e7438038062000e74833981810160405281019062000037919062000188565b336000806101000a81548173ffffffffffffffffffffffffffffffffffffffff021916908373ffffffffffffffffffffffffffffffffffffffff16021790555082600160006101000a81548173ffffffffffffffffffffffffffffffffffffffff021916908373ffffffffffffffffffffffffffffffffffffffff1602179055508160028190555080600481905550505050620001e4565b600080fd5b600073ffffffffffffffffffffffffffffffffffffffff82169050919050565b60006200010182620000d4565b9050919050565b60006200011582620000f4565b9050919050565b620001278162000108565b81146200013357600080fd5b50565b60008151905062000147816200011c565b92915050565b6000819050919050565b62000162816200014d565b81146200016e57600080fd5b50565b600081519050620001828162000157565b92915050565b600080600060608486031215620001a457620001a3620000cf565b5b6000620001b48682870162000136565b9350506020620001c78682870162000171565b9250506040620001da8682870162000171565b9150509250925092565b610c8080620001f46000396000f3fe60806040526004361061007f5760003560e01c806391b7f5ed1161004e57806391b7f5ed14610143578063a035b1fe1461016c578063e831574214610197578063fc0c546a146101c2576100b5565b80633610724e146100ba5780634bb278f3146100d6578063518ab2a8146100ed5780638da5cb5b14610118576100b5565b366100b5576000600254346100949190610826565b90506100b2670de0b6b3a7640000826100ad9190610857565b6101ed565b50005b600080fd5b6100d460048036038101906100cf91906108e2565b6101ed565b005b3480156100e257600080fd5b506100eb6103d9565b005b3480156100f957600080fd5b506101026106ca565b60405161010f919061091e565b60405180910390f35b34801561012457600080fd5b5061012d6106d0565b60405161013a919061097a565b60405180910390f35b34801561014f57600080fd5b5061016a600480360381019061016591906108e2565b6106f4565b005b34801561017857600080fd5b5061018161078c565b60405161018e919061091e565b60405180910390f35b3480156101a357600080fd5b506101ac610792565b6040516101b9919061091e565b60405180910390f35b3480156101ce57600080fd5b506101d7610798565b6040516101e491906109f4565b60405180910390f35b600254670de0b6b3a7640000826102049190610826565b61020e9190610857565b34101561021a57600080fd5b80600160009054906101000a900473ffffffffffffffffffffffffffffffffffffffff1673ffffffffffffffffffffffffffffffffffffffff166370a08231306040518263ffffffff1660e01b8152600401610276919061097a565b60206040518083038186803b15801561028e57600080fd5b505afa1580156102a2573d6000803e3d6000fd5b505050506040513d601f19601f820116820180604052508101906102c69190610a24565b10156102d157600080fd5b600160009054906101000a900473ffffffffffffffffffffffffffffffffffffffff1673ffffffffffffffffffffffffffffffffffffffff1663a9059cbb33836040518363ffffffff1660e01b815260040161032e929190610a51565b602060405180830381600087803b15801561034857600080fd5b505af115801561035c573d6000803e3d6000fd5b505050506040513d601f19601f820116820180604052508101906103809190610ab2565b61038957600080fd5b806003546103979190610adf565b6003819055507f7534e9c9396820aad756ba27f82162930f80bef863aabdf311e7dce26a79bccd81336040516103ce929190610b35565b60405180910390a150565b60008054906101000a900473ffffffffffffffffffffffffffffffffffffffff1673ffffffffffffffffffffffffffffffffffffffff163373ffffffffffffffffffffffffffffffffffffffff1614610467576040517f08c379a000000000000000000000000000000000000000000000000000000000815260040161045e90610bbb565b60405180910390fd5b6000600160009054906101000a900473ffffffffffffffffffffffffffffffffffffffff1673ffffffffffffffffffffffffffffffffffffffff166370a08231306040518263ffffffff1660e01b81526004016104c4919061097a565b60206040518083038186803b1580156104dc57600080fd5b505afa1580156104f0573d6000803e3d6000fd5b505050506040513d601f19601f820116820180604052508101906105149190610a24565b9050600160009054906101000a900473ffffffffffffffffffffffffffffffffffffffff1673ffffffffffffffffffffffffffffffffffffffff1663a9059cbb60008054906101000a900473ffffffffffffffffffffffffffffffffffffffff16836040518363ffffffff1660e01b8152600401610593929190610a51565b602060405180830381600087803b1580156105ad57600080fd5b505af11580156105c1573d6000803e3d6000fd5b505050506040513d601f19601f820116820180604052508101906105e59190610ab2565b6105ee57600080fd5b600047905060008060009054906101000a900473ffffffffffffffffffffffffffffffffffffffff1673ffffffffffffffffffffffffffffffffffffffff168260405161063a90610c0c565b60006040518083038185875af1925050503d8060008114610677576040519150601f19603f3d011682016040523d82523d6000602084013e61067c565b606091505b505090508061068a57600080fd5b7f9d3cb3e4bff976f636db6ed472093505eb1b5bafc234ea8276ae83b3ea0a8b74600354836040516106bd929190610c21565b60405180910390a1505050565b60035481565b60008054906101000a900473ffffffffffffffffffffffffffffffffffffffff1681565b60008054906101000a900473ffffffffffffffffffffffffffffffffffffffff1673ffffffffffffffffffffffffffffffffffffffff163373ffffffffffffffffffffffffffffffffffffffff1614610782576040517f08c379a000000000000000000000000000000000000000000000000000000000815260040161077990610bbb565b60405180910390fd5b8060028190555050565b60025481565b60045481565b600160009054906101000a900473ffffffffffffffffffffffffffffffffffffffff1681565b6000819050919050565b7f4e487b7100000000000000000000000000000000000000000000000000000000600052601260045260246000fd5b7f4e487b7100000000000000000000000000000000000000000000000000000000600052601160045260246000fd5b6000610831826107be565b915061083c836107be565b92508261084c5761084b6107c8565b5b828204905092915050565b6000610862826107be565b915061086d836107be565b9250817fffffffffffffffffffffffffffffffffffffffffffffffffffffffffffffffff04831182151516156108a6576108a56107f7565b5b828202905092915050565b600080fd5b6108bf816107be565b81146108ca57600080fd5b50565b6000813590506108dc816108b6565b92915050565b6000602082840312156108f8576108f76108b1565b5b6000610906848285016108cd565b91505092915050565b610918816107be565b82525050565b6000602082019050610933600083018461090f565b92915050565b600073ffffffffffffffffffffffffffffffffffffffff82169050919050565b600061096482610939565b9050919050565b61097481610959565b82525050565b600060208201905061098f600083018461096b565b92915050565b6000819050919050565b60006109ba6109b56109b084610939565b610995565b610939565b9050919050565b60006109cc8261099f565b9050919050565b60006109de826109c1565b9050919050565b6109ee816109d3565b82525050565b6000602082019050610a0960008301846109e5565b92915050565b600081519050610a1e816108b6565b92915050565b600060208284031215610a3a57610a396108b1565b5b6000610a4884828501610a0f565b91505092915050565b6000604082019050610a66600083018561096b565b610a73602083018461090f565b9392505050565b60008115159050919050565b610a8f81610a7a565b8114610a9a57600080fd5b50565b600081519050610aac81610a86565b92915050565b600060208284031215610ac857610ac76108b1565b5b6000610ad684828501610a9d565b91505092915050565b6000610aea826107be565b9150610af5836107be565b9250827fffffffffffffffffffffffffffffffffffffffffffffffffffffffffffffffff03821115610b2a57610b296107f7565b5b828201905092915050565b6000604082019050610b4a600083018561090f565b610b57602083018461096b565b9392505050565b600082825260208201905092915050565b7f43616c6c6572206973206e6f7420746865206f776e6572000000000000000000600082015250565b6000610ba5601783610b5e565b9150610bb082610b6f565b602082019050919050565b60006020820190508181036000830152610bd481610b98565b9050919050565b600081905092915050565b50565b6000610bf6600083610bdb565b9150610c0182610be6565b600082019050919050565b6000610c1782610be9565b9150819050919050565b6000604082019050610c36600083018561090f565b610c43602083018461090f565b939250505056fea2646970667358221220f44fcd43b518dbf8182cce3149ef67610c277ebd076666c8bbde1a7707b86c9a64736f6c63430008090033",
  "linkReferences": {},
  "deployedLinkReferences": {}
}